{
  "contractName": "HelloERC20",
  "abi": [
    {
      "constant": true,
      "inputs": [],
      "name": "totalSupply",
      "outputs": [
        {
          "name": "",
          "type": "uint256"
        }
      ],
      "payable": false,
      "stateMutability": "view",
      "type": "function"
    },
    {
      "constant": true,
      "inputs": [],
      "name": "decimals",
      "outputs": [
        {
          "name": "",
          "type": "uint8"
        }
      ],
      "payable": false,
      "stateMutability": "view",
      "type": "function"
    },
    {
      "inputs": [
        {
          "name": "initialSupply",
          "type": "uint256"
        }
      ],
      "payable": false,
      "stateMutability": "nonpayable",
      "type": "constructor"
    }
  ],
  "bytecode": "0x606060405260126000806101000a81548160ff021916908360ff160217905550341561002a57600080fd5b604051602080610156833981016040528080519060200190919050506000809054906101000a900460ff1660ff16600a0a81026001819055505060e4806100726000396000f3006060604052600436106049576000357c0100000000000000000000000000000000000000000000000000000000900463ffffffff16806318160ddd14604e578063313ce567146074575b600080fd5b3415605857600080fd5b605e60a0565b6040518082815260200191505060405180910390f35b3415607e57600080fd5b608460a6565b604051808260ff1660ff16815260200191505060405180910390f35b60015481565b6000809054906101000a900460ff16815600a165627a7a72305820247afe0e260dcf70a953bcdc82b5560083760cf5ab859329debba90d876c73470029",
  "source": "pragma solidity ^0.4.4;\n\ncontract HelloERC20 {\n\n  uint8 public decimals = 18;\n  uint256 public totalSupply;\n\n  function HelloERC20(uint256 initialSupply) public {\n    totalSupply = initialSupply * 10 ** uint256(decimals);\n  }\n}\n",
  "sourcePath": "/Users/christoph/src/folkengine/hello-erc20-kata/contracts/HelloERC20.sol",
  "compiler": {
    "name": "solc",
    "version": "0.4.19+commit.c4cbbb05.Emscripten.clang"
  },
  "schemaVersion": "1.0.1",
  "updatedAt": "2018-02-20T23:20:37.063Z"
}